:020000040800F2
:100000005014002001010008B3290008F32600085D
:10001000B12900080D0D0008C52F000800000000E0
:1000200000000000000000000000000013010008B4
:100030000F0D00080000000017010008452A000805
:100040001B0100081B0100081B0100081B01000820
:100050001B0100081B0100081B0100081B01000810
:100060001B0100081B0100081B0100081B01000800
:100070001B0100081B0100081B0100081B010008F0
:100080001B0100081B0100081B0100081B010008E0
:100090001B0100081B0100081B0100081B010008D0
:1000A0001B0100081B0100081B0100081B010008C0
:1000B0001B0100081B0100081B0100081B010008B0
:1000C0001B0100081B0100081B0100081B010008A0
:1000D0001B0100081B0100081B010008B92F0008C4
:1000E0001B0100081B0100081B010008DFF80CD0F1
:1000F00000F088FD00480047453C000850140020EF
:100100000648804706480047FEE7FEE7FEE7FEE7B1
:10011000FEE7FEE7FEE7FEE7FEE7FEE7B12A00089E
:10012000ED000008202A04DB203A21FA02F0002129
:10013000704721FA02F3D040C2F1200291400843F7
:1001400019467047A0F14101192900D820307047A5
:1001500040EA01039B0703D009E008C9121F08C049
:10016000042AFAD203E011F8013B00F8013B521EC9
:10017000F9D27047D2B201E000F8012B491EFBD240
:1001800070470022F6E710B513460A4604461946A2
:10019000FFF7F0FF204610BD421E12F8013F002B72
:1001A000FBD111F8013B02F8013B002BF9D170475C
:1001B00030B505462A460B4612F8010B13F8014BE1
:1001C00008B1A042F8D01CB1002802D06D1CF1E7A4
:1001D000284630BD421C10F8011B0029FBD1801AB3
:1001E000704710B5002200E0521C835C8C5CA34277
:1001F00001D1002BF8D1D8B2E1B2401A10BD0346AC
:1002000011F8012B00F8012B002AF9D1184670478C
:1002100030B505460020034600E05B1C934205D242
:10022000EC5CC85C201A01D1002CF6D130BD000076
:1002300070B50F4D00B92868002412E00A4602E0AC
:100240009E4203D0521C1378002BF9D1DAB222431C
:1002500005D02BB124B1002100F8011B04E00446B5
:10026000401C0678002EE9D12860204670BD0000B1
:100270002C0000202DE9FF4F087881B09946FF2817
:1002800005D0491C2D2804D00024002308E00023B9
:100290000BE00124F9E703EB830300EB4303491C64
:1002A0000878FF28F7D104B15B4200200090147851
:1002B00001462D2C01D02B2C04D1521C2D2C12D0F8
:1002C0000024009400251678FF2E0ED00A24A0FBEF
:1002D00004C801FB0481002700FB0711521C16EB28
:1002E0000C006941EFE70124EBE7994450EA010271
:1002F0000ED00024AA4D2646DFF8A88200F041FC6B
:1003000082468B46B9F1000009DAC9F100071BE00B
:1003100001980021C0E9001105B0BDE8F08F074643
:1003200012E0F80707D022462B463046414600F03F
:1003300047FB0646884622462B461046194600F0E3
:100340003FFB04460D467F10002FEAD1B9F1000FA4
:10035000324643465046594602DA00F0A3FB01E01C
:1003600000F02EFB009A0AB181F00041019AC2E927
:100370000001D1E72DE9FF4F1F468DB0D7E90146B7
:100380004FF0FF382E2045464FF000090B90B96919
:100390006D1C0E988847396A824688470028F6D136
:1003A000BAF1FF3F0AD024F4D064002E11DDBAF177
:1003B0002B0F08D0BAF12D0F0BD102E0404611B03F
:1003C000ABE744F48064B9696D1C0E988847824697
:1003D000761E6946600501D52D2000E02B208DF8A2
:1003E000000001F1010B0DF1200809E0B9696D1C55
:1003F0000E98884782460F9844F40074761E056074
:10040000002E02DDBAF1300FF0D00B998A453ED1B3
:1004100044F0800406E00F99681CA9F1010944F436
:1004200000740860B9696D1C761E0E988847824674
:100430003028F0D02BE00B998A4505D1200603D453
:1004400044F08004761E18E0504602F00BFF08B31B
:100450000DF11301761E44F400748B4508D2AAF105
:1004600030000BF8010B200607D5A9F1010003E0CD
:10047000200602D409F101008146A00502D50F999A
:10048000681C0860B9696D1C0E9888478246002E6A
:10049000D1DC53E0002E51DDBAF1650F02D0BAF184
:1004A000450F4BD1A00549D5B9696D1C24F44074A2
:1004B000761E0E9888478246002E0CDD2B2804D02D
:1004C000BAF12D0F07D144F48074B9696D1C0E98F0
:1004D00088478246761EE00501D52D2100E02B21BC
:1004E00008F8011BCDF82C8021E00DF12901761EC2
:1004F00044F4007488450CD2AAF1300010F0FF00DB
:1005000088F8000002D10B99884509D908F1010843
:1005100006E0E00501D5244801E042F20F70814673
:10052000B9696D1C0E98884782460F980560002EA9
:1005300004DD504602F096FE0028D6D1F9690E98E7
:100540008847FF208BF8000088F800000020069004
:1005500007904B466A4608A906A8FFF78BFEA00540
:1005600002D46FF001002AE714F0240F0AD0E0074C
:1005700014D1DDE906123868031D3B600068C0E94C
:1005800000120BE0DDE9060100F01FFB0146E00769
:1005900004D13868021D3A600068016028460EE701
:1005A000000024400000F03FF1D8FFFF70B5C1F318
:1005B0000A5201F000450024C1F3130140F2FF3359
:1005C00041F480119A4201DA002070BD40F23343B9
:1005D0009A42A2F2334203DC5242FFF7A3FD00E04D
:1005E00090402C43F1D0404270BD000030B5041E55
:1005F00071F1000404DB4FF00044404264EB010160
:10060000141E73F1000405DB1C464FF000435242F8
:1006100063EB04038B4208BF824230BD30B5041E39
:1006200071F1000404DB4FF00044404264EB01012F
:10063000141E73F1000405DB1C464FF000435242C8
:1006400063EB0403994208BF904230BD30B50B46BE
:10065000014600202022012409E021FA02F59D42F2
:1006600005D303FA02F5491B04FA02F52844151EC6
:10067000A2F10102F1DC30BD2DE9F05F054600205A
:1006800092469B4688460646814640241BE0284603
:10069000414647462246FFF745FD53465A46C01A93
:1006A000914110D311461846224600F0BDFA2D1A8A
:1006B00067EB01084F4622460120002100F0B4FA02
:1006C00017EB00094E41201EA4F10104DFDC48466F
:1006D00031462A464346BDE8F09F426842B1016870
:1006E00011F8013B23B1521EC0E9001218467047B1
:1006F0000121C160881E704742685AB1C368016811
:1007000043B983688B4205D0491E521CC0E90012D0
:10071000002070474FF0FF30704700000FB40023F7
:1007200000B589B00CA900910B996FF00042CB6025
:100730001E4B06931E4B07930423CDE901321D4A3D
:10074000089202466B460020FFF714FE09B05DF8E0
:1007500014FB70B586B006464FF0FF300091CDE92E
:100760000101002015460C4604903246694604A853
:10077000FFF7D4FF03460498211825B108B10A46B3
:1007800000E022462A6000280DD0002B02DD0098F0
:10079000884208D0081B0094CDE90104324669461E
:1007A00004A8FFF7BBFF06B070BD0000DB06000821
:1007B000F90600086B0C000810B5141E73F1000454
:1007C00008DA401C41F1000192185B411A4301D143
:1007D00020F0010010BD2DE9F04D92469B4611B16D
:1007E000B1FA81F202E0B0FA80F22032904600F0D5
:1007F0001BFA04460F4640EA0A0041EA0B01534641
:100800005A46084313D0114653EA010019D0C8F1E3
:1008100040025046FFF786FC05460E4650465946B4
:10082000424600F001FA084305D0012004E02046CA
:100830003946BDE8F08D0020054346EAE0762C43BA
:1008400037430A986305E40AA0EB08000022FD0A7A
:1008500044EA47540A3002D500200146E9E7010581
:1008600010196941DDE9084500196941BDE8F04DFD
:10087000A2E72DE9FE4F804681EA0300C00F0C4637
:10088000009021F0004123F00045B8EB0200A9419F
:1008900005D24046214690461C460B46024623F0B0
:1008A0000040104347D0270DC7F30A00C3F30A5195
:1008B0000290401A019040286BDAC3F3130040F411
:1008C000801B0098924620B10023D2EB030A63EB11
:1008D0000B0B01985946C0F14002504600F0A4F9B4
:1008E00006460D4650465946019A00F0ACF910EB09
:1008F00008006141002487EA115284EAE7731A4331
:1009000040D0009A62B3019A012A4FEA075215DCDF
:10091000001B61EB02014FF0004202EA0752CDE9F1
:100920000042001C41F5801132462B46FFF753FF71
:1009300003B0BDE8F08F40462146F9E7001B61EBAC
:100940000201001C41F5801300185B412018A2F53C
:10095000001747EB030140EAD570B6196D4111E06D
:100960006D084FEA360645EAC0754FEA0752001B8C
:1009700061EB0201001C41F5801149084FEA30008B
:100980000019514132462B4603B0BDE8F04FFFF746
:1009900013BF0098012240000023D0EB020263EB5A
:1009A000E073009821464FEAE074B8EB000061EB79
:1009B0000401E9E783F000435BE781F0004158E779
:1009C0002DE9FE4F81EA030404F0004421F00041C8
:1009D00000944FF0000B23F0004350EA01045ED076
:1009E00052EA03045BD0C3F30A54C1F30A552C4402
:1009F000A4F2F3340194A0FB0254C1F3130141F4B7
:100A00008011C3F3130343F4801301FB024400FB82
:100A1000034E840A970A44EA815447EA8357A4FBA9
:100A2000076802958D0A05FB07854FEA932C04FBA6
:100A30000C542705029D4FEA065847EA1637B5EBD6
:100A400008056EEB070C870E920E47EA811742EA03
:100A50008312A7FB0201B6EB0B0164EB00042B0D24
:100A600043EA0C335E1844EB1C50DA465146E7FB70
:100A70000201C5F313044FEA0B3343EA14534FEA60
:100A80000432019C43EA0603A4F10C040294009C86
:100A9000CDE900B4FFF79FFE03B0BDE8F08F002062
:100AA0000146F9E72DE9F04D81EA030404F0004B1B
:100AB00021F0004514464FF0000A23F0004150EAAF
:100AC000050220D054EA01021DD0C5F30A570246A0
:100AD000C5F31303C1F31300C1F30A5640F48015A4
:100AE00043F48013A7EB0608101BD64608F2FD3826
:100AF00073EB050002D308F1010801E092185B4195
:100B0000B8F1000F03DA00200146BDE8F08D0020A7
:100B10004FF48011064684460EE0171B73EB050761
:100B200005D3121B63EB050306434CEA010C49088D
:100B30004FEA300092185B4150EA0107EDD152EACA
:100B4000030012D082EA040083EA0501084305D0BD
:100B5000101BAB4106D20122002306E000224FF019
:100B6000004302E06FF0010253101AEB06004CEB59
:100B7000085110EB0A0041EB0B01BDE8F04DFFF707
:100B80001BBE0EB540F2334202920022CDE9002294
:100B90001346FFF720FE03B000BDC1F30A52C1F3B4
:100BA000130140F2FF3341F480119A4202DA00202F
:100BB0000146704740F233439A42A2F2334202DCCC
:100BC0005242FFF7AFBA00F02FB801F0004330B443
:100BD00021F0004150EA010206D00A0DA2F5607230
:100BE000C1F31301002A02DC30BC00207047440F1F
:100BF00044EAC104C100E01830BC00EBC25000F070
:100C000039B80000064C074D06E0E06840F00103EB
:100C100094E8070098471034AC42F6D3FFF76AFA1D
:100C2000E048000800490008202A04DB203A00FAC6
:100C300002F1002070479140C2F1200320FA03F333
:100C4000194390407047202A06DBCB17203A41FA1F
:100C500002F043EAE07306E041FA02F3D040C2F149
:100C600020029140084319467047C0B24FF4F0513A
:100C700000F038B80029A8BF7047401C490008BFE1
:100C800020F00100704710B4B0FA80FC00FA0CF0BC
:100C900050EA010404BF10BC704749B1CCF12004F4
:100CA00021FA04F411FA0CF118BF01212143084381
:100CB000A3EB0C01CB1D4FEA00614FEA102042BFAD
:100CC000002010BC704700EBC35010440029A4BFA3
:100CD00010BC7047401C490008BF20F0010010BC48
:100CE000704700007F2801D9002208E0064A02EB85
:100CF0005002C007127800D1120902F00F02012041
:100D0000904008407047000076480008FEE7FEE784
:100D1000104810B5816986B041F008018161806991
:100D20000D4C00F0080004904FF480600090022009
:100D30000190032003906946204600F051FA0021FB
:100D4000E014CDE9000102916946204600F048FA1E
:100D500006B010BD00100240000C01400FB42DE998
:100D6000FF410CAC00263B4D0DE05C2813D001F197
:100D7000010125280B911ED002F026F92868016890
:100D8000C9430906FBD40B9908780028EDD1BDE8CA
:100D9000FF015DF814FB491C0B9108786E2803D005
:100DA000722805D10D2000E00A2002F00DF94CE078
:100DB000491C0B91E2E7087864280FD07328F7D11B
:100DC00080CC07E002F000F928680168C9430906F1
:100DD000FBD47F1C38780028F4D136E001CC002702
:100DE000694600281FD007DA4FF02D028DF8002049
:100DF000C0F1000001F1010142F210734FF00A0C42
:100E000090FBF3F252EA070E06D002F1300701F828
:100E1000017B02FB1300012793FBFCF3002BEFDCAB
:100E20000E706F460EE030208DF800008DF80160E6
:100E3000F7E700BF02F0C8F828680168C94309064F
:100E4000FBD47F1C38780028F4D10B98401C0B9001
:100E500094E70000D400002008B5FFF759FF1148BF
:100E6000C16941F48021C161C0690F4900F480204B
:100E700000900E480C2201604FF4E13141600021E6
:100E80008160C160C0E904128161C16101F01FFB92
:100E900001220021272000F0F3FABDE808402720B6
:100EA00000F0E2BA0010024000480040D4000020E8
:100EB00070B516460C46054602F036FE2A4607A1D6
:100EC0000748FFF74BFF3CB1304600F07DF9204664
:100ED000BDE8704000F006B8002070BD257300002A
:100EE00000480040F8B50446684602F071FE002153
:100EF0000A469DF800300CE0665C2EB1455DB542B7
:100F000004D1491CC9B204E00020F8BD521CD2B281
:100F100000218D189D42EFD3605C0028F5D00120A0
:100F2000F8BD000010B5134C0EA12046FFF716FFC8
:100F3000642000F049F910A12046FFF70FFF64205C
:100F400000F042F913A12046FFF708FF642000F0EB
:100F50003BF913A12046FFF701FFBDE810406420D4
:100F600000F032B941542B4347434C4153533D2287
:100F700042220D000048004041542B434744434F58
:100F80004E543D312C224950222C22434D4E455483
:100F9000220D000041542B43474154543D310D0074
:100FA00041542B434950435347503D312C22434D2C
:100FB0004E4554220D00000010B504A10748FFF76C
:100FC000CDFEBDE81040642000F0FEB841542B482F
:100FD0005454505445524D0D00000000004800404C
:100FE00030B5184D0246ADF57B7D10A12846FFF7C0
:100FF000B5FE642000F0E8F802F096FD12A1284644
:10100000FFF7ACFE01F0E6FC044614A12846FFF70A
:10101000A5FE642000F0D8F814A22146684603F02B
:1010200091FB32A80DF57B7D30BD000041542B486B
:10103000545450504152413D2255524C222C2225AD
:1010400073220D000048004041542B485454504135
:101050004354494F4E3D300D0000000041542B4891
:10106000545450524541440D000000000A00000055
:1010700010B504A10748FFF771FEBDE810406420D9
:1010800000F0A2B841542B48545450494E49540DD5
:10109000000000000048004008B502F045FDFFF7E1
:1010A000DBFE14A11548FFF759FEC82000F08CF8AC
:1010B00001221349134801F065FAC82212A113A0B6
:1010C000FFF7F6FE98B902F02FFDC8220EA111A07D
:1010D000FFF7EEFE58B9684602F07AFD9DF8001061
:1010E00029B10FA1FFF764F808B1002008BD012065
:1010F00008BD0000415451300D0000000048004080
:1011000029000020D40000204F4B000041544530FE
:101110000D00000041542B43474D4D0D00000000D1
:1011200053494D434F4D5F53494D000010B5124C8C
:101130000EA12046FFF712FE642000F045F80FA133
:101140002046FFF70BFE642000F03EF813A1204676
:10115000FFF704FE642000F037F817A12046FFF7E0
:10116000FDFDBDE81040642000F02EB841542B4333
:10117000474154543F0D00000048004041542B5358
:10118000415042523D332C312C22434F4E54595042
:1011900045222C2247505253220D000041542B531C
:1011A000415042523D332C312C2241504E222C22B0
:1011B000434D4E4554220D0041542B534150425251
:1011C0003D312C310D00000031B500F0EDF8044642
:1011D00000F0EAF80099001B8842F9D338BD0000FE
:1011E0002DE9F84FDFF890A100220AF1040B144614
:1011F00001274FF00F090BF1040E00BF0B6807FA2F
:1012000004F52B40AB4274D1DFF870C14E68A6EBF9
:101210000C0866452BD00DDC032E34D005DC36B32C
:10122000012E19D0022E2FD11BE0112E16D0122E16
:101230002AD119E0B8F5881F19D006DCB8F5803F2F
:1012400015D0B8F5801F1FD111E0B8F5001F0ED0E2
:10125000B8F5041F18D10AE0CA6815E0CA68121D63
:1012600012E0CA6808320FE0CA680C320CE08A68E3
:101270002AB1012A4FF0080203D0456104E004229C
:1012800002E0056100E00022FF2B01D8064601E0E4
:1012900000F104064FEA840501D9A5F12005D6F82E
:1012A00000C009FA05F82CEA080C02FA05F54CEA28
:1012B000050CC6F800C04D68ED0057D5304DAE693D
:1012C00046F00106AE61AD6924F0030605F00105A4
:1012D00000952C4D06EB050CDCF80850A6074FEAEC
:1012E000167809FA08F6B543274EB04202D1002617
:1012F00010E03BE0254EB04201D101260AE0244E29
:10130000B04201D1022605E0224EB04201D10326AF
:1013100000E0042606FA08F62E43CCF808604D6873
:10132000DAF80060ED03554601D51E4300E09E4308
:101330002E604D68DBF80060AD035D4601D51E43AD
:1013400000E09E432E604D68DEF80060ED027546B9
:1013500001D51E4300E09E432E604D68AD020E4D48
:101360002E6801D51E4300E09E432E60641C102CA5
:10137000FFF444AFBDE8F88F0004014000001110F5
:10138000001002400000014000080140000C014034
:1013900000100140001401400C0401400AB1016139
:1013A00070470904FBE7000001480068704700002F
:1013B0000400002002480168491C016070470000D9
:1013C00004000020074810B5016841F010010160D9
:1013D000032000F075F8002000F006F800F016F881
:1013E000002010BD0020024010B5044600F0BEF9F8
:1013F0004FF47A71B0FBF1F000F0F5FD00222146C8
:10140000501E00F03DF8002010BD0000154808B542
:10141000816941F001018161806900F00100009063
:10142000052000F04DF8002211466FF00B0000F08F
:1014300027F8002211466FF00A0000F021F8002280
:1014400011466FF0090000F01BF800221146101F32
:1014500000F016F80022BDE808401146501E00F0CA
:101460000FB800000010024000F01F02012191405F
:101470004009800000F1E020C0F800117047000032
:10148000F0B40E4B1B680C46C3F30223C3F10705EF
:10149000042D00D90425191D072901D2002300E0DD
:1014A000DB1E012606FA05F1491E214099409E40A7
:1014B000761E16403143F0BC01F07CBA0CED00E022
:1014C000064900F0070208684FF6FF03184040EA9B
:1014D0000220034A10430860704700000CED00E052
:1014E0000000FA052DE9F047DFF8789205460E4630
:1014F000D9F80000022300F007070120410442064A
:10150000994C41F28838B74271D2D9F800C02CF01A
:10151000070C4CEA060CC9F800C0D9F8007007F0B7
:101520000707B7426FD12E78B60705D56668AF6852
:1015300026F0F0063E4366602E78F60756D06E68B9
:10154000012E0BD0022E1ED093FAA3F1B1FA81F135
:1015500041F02001490924D0216823E091FAA1F249
:10156000B2FA82F242F02002520901D0226800E071
:10157000626A91FAA1F1B1FA81F101F01F0188408C
:10158000024240D017E092FAA2F1B1FA81F141F0A3
:101590002001490901D0216800E0616A92FAA2F2B3
:1015A00002E0616A93FAA3F2B2FA82F202F01F0239
:1015B0009040014227D0606820F003003043606013
:1015C000FFF7F2FE06466868012809D00228474660
:1015D00013D01EE0FFF7E8FE801BB84201D992E06D
:1015E00047466068C0F381000128F3D1A1E015E00F
:1015F000FFF7DAFE801BB84273D86068C0F3810041
:101600000228F5D195E092E0FFF7CEFE801BB842AC
:1016100079D8606810F00C0FF6D18AE02F78BF07F8
:1016200007D56768D5F808C027F0F00747EA0C0728
:1016300067602F78FF076DD06F68012F0BD0022FE6
:101640001ED093FAA3F1B1FA81F141F020014909CA
:1016500024D0216823E091FAA1F2B2FA82F242F09A
:101660002002520901D0226800E0626A91FAA1F1D9
:10167000B1FA81F101F01F018840024257D017E012
:1016800092FAA2F1B1FA81F141F02001490901D0A9
:10169000216800E0616A92FAA2F202E0616A93FABC
:1016A000A3F2B2FA82F202F01F02904001423ED051
:1016B000606820F0030038436060FFF775FE07465E
:1016C0006868012807D0022811D01FE0FFF76CFEE0
:1016D000C11B414517D86068C0F381000128F5D1CE
:1016E00018E010E0FFF760FEC11B41450BD86068B1
:1016F000C0F381000228F5D10CE000BFFFF754FED3
:10170000C11B414502D90320BDE8F087606810F095
:101710000C0FF3D1D9F8001021F007013143C9F8BB
:101720000010D9F8000000F00700B04201D00120FD
:10173000EAE72878400705D56068E96820F4E060AA
:10174000084360602878000706D56068296920F49E
:10175000605040EAC10060600020FFF745FE0020B5
:10176000D2E70000002002400010024000B500F067
:1017700043F808494968F02292FAA2F201F0F00118
:10178000B2FA82F2D140044A515CC8400349086071
:1017900000BD000000100240664800080000002064
:1017A00000B5FFF7E3FF074949684FF4E06292FA9A
:1017B000A2F201F4E061B2FA82F2D140024A515C35
:1017C000C84000BD001002406648000800B5FFF7A1
:1017D000CDFF074949684FF4605292FAA2F201F432
:1017E0006051B2FA82F2D140024A515CC84000BD59
:1017F000001002406648000810B519A385B00FCB51
:101800008DE80F001AA01B4B006804905A681A4814
:1018100002F00C0104291DD008291BD14FF47014CB
:1018200094FAA4F402F47011B4FA84F4E140D203FF
:101830001DF8011010D55A684FF4003393FAA3F342
:1018400002F40032B3FA83F3DA4004AB9A5CB0FBE3
:10185000F2F0484305B010BD08484843FAE70000DD
:1018600002030405060708090A0B0C0D0E0F1010E1
:10187000010200000010024000127A0000093D0041
:101880002DE9F84F05460078FA4EC0074FF00104E5
:1018900025D070686704C0F38100012807D0706804
:1018A000C0F3810002281BD17068C00318D597FAD5
:1018B000A7F0B0FA80F040F02000400901D0306875
:1018C00000E0706A97FAA7F1B1FA81F101F01F0107
:1018D00004FA01F1084202D06868002876D081E05D
:1018E000306820F480303060306820F48020306030
:1018F000FFF75AFD804605E0FFF756FDA0EB080014
:1019000064287CD897FAA7F0B0FA80F040F0200065
:10191000400901D0306800E0706A97FAA7F1B1FA87
:1019200081F101F01F0104FA01F10842E4D1686875
:10193000B0F5803F0BD010B1B0F5A02F11D03068BA
:1019400020F480303060306820F4802002E030687D
:1019500040F480303060686820B3FFF725FD804692
:101960000AE0306840F480203060F0E7FFF71CFDAB
:10197000A0EB08006428C4D897FAA7F0B0FA80F06A
:1019800040F02000400901D0306800E0706A97FA0A
:10199000A7F1B1FA81F101F01F0104FA01F1084247
:1019A000E4D01FE0FFF700FD804605E0FFF7FCFCF8
:1019B000A0EB08006428A4D897FAA7F0B0FA80F04A
:1019C00040F02000400902D0306801E0B7E0706AC2
:1019D00097FAA7F1B1FA81F101F01F0104FA01F1C0
:1019E0000842E3D12878DFF8908280074FF00009A1
:1019F0004FF002075AD5706810F00C0F00E07AE142
:101A00004FF0F80B07D07068C0F3810002281BD19B
:101A10007068C00318D497FAA7F0B0FA80F040F0CD
:101A20002000400901D0306800E0706A97FAA7F101
:101A3000B1FA81F101F01F0104FA01F108422AD044
:101A4000286901287BD126E0286980B394FAA4F0A4
:101A5000B0FA80F048F82040FFF7A6FC824605E087
:101A6000FFF7A2FCA0EB0A00022884D897FAA7F09F
:101A7000B0FA80F040F02000400901D0306800E06A
:101A8000706A97FAA7F1B1FA81F101F01F0104FA27
:101A900001F10842E4D030689BFAABF26969B2FA0E
:101AA00082F220F0F80091400843306025E0FFE723
:101AB00094FAA4F1B1FA81F148F82190FFF774FC8F
:101AC000824605E0FFF770FCA0EB0A000228CCD8A4
:101AD00097FAA7F0B0FA80F040F02000400901D05A
:101AE000306800E0706A97FAA7F1B1FA81F101F06D
:101AF0001F0104FA01F10842E4D1287800076ED5ED
:101B0000A869B8B394FAA4F0B0FA80F008EB8000AA
:101B1000C0F88044FFF748FC824605E0FFF744FC2C
:101B2000A0EB0A000228A0D897FAA7F0B0FA80F03C
:101B300040F06000B4EB501F02D130680CE096E139
:101B400097FAA7F0B0FA80F040F06000B7EB501FB2
:101B500001D1306A00E0706A97FAA7F1B1FA81F119
:101B600001F01F0104FA01F21042D7D00120FFF763
:101B70002BFB34E0FFE794FAA4F1B1FA81F108EB12
:101B80008101C1F88094FFF70FFC824606E000BF98
:101B9000FFF70AFCA0EB0A00022898D897FAA7F0F2
:101BA000B0FA80F040F06000B4EB501F01D1306813
:101BB0000BE097FAA7F0B0FA80F040F06000B7EBC6
:101BC000501F01D1306A00E0706A97FAA7F1B1FAAC
:101BD00081F101F01F0104FA01F21042D8D12878F6
:101BE000400770D5F06940F08050F061F069DFF88F
:101BF0008CB000F080500090DBF8001041F4807150
:101C0000CBF80010FFF7D0FB824605E0FFF7CCFBD6
:101C1000A0EB0A0064286ED8DBF80000C005F5D5FB
:101C2000306A20F001003062306A20F00400306237
:101C3000FFF7BAFB834641F2883A05E0FFF7B4FBB1
:101C4000A0EB0B01514556D897FAA7F0B0FA80F0F7
:101C500040F04000B4EB501F01D1306811E097FA1A
:101C6000A7F0B0FA80F040F04000B7EB501F07D16A
:101C7000306A06E00010024000004242007000405E
:101C8000706A97FAA7F1B1FA81F101F01F0104FA25
:101C900001F10842D2D1E86801280AD008B105282C
:101CA00012D0306A20F001003062306A20F0040067
:101CB00002E0306A40F001003062E86898B3FFF754
:101CC00073FB83460CE05AE0306A40F00400306257
:101CD000EFE700BFFFF768FBA0EB0B0151450AD807
:101CE00097FAA7F0B0FA80F040F04000B4EB501F34
:101CF00002D130680CE09DE097FAA7F0B0FA80F0CE
:101D000040F04000B7EB501F01D1306A00E0706A2C
:101D100097FAA7F1B1FA81F101F01F0204FA02F17A
:101D20000842D7D02BE0FFE7FFF73EFB834605E0F4
:101D3000FFF73AFBA0EB0B0151457BD897FAA7F0D0
:101D4000B0FA80F040F04000B4EB501F01D1306891
:101D50000BE097FAA7F0B0FA80F040F04000B7EB44
:101D6000501F01D1306A00E0706A97FAA7F1B1FA0A
:101D700081F101F01F0204FA02F10842D8D1E869AA
:101D800080B37168C1F38101022970D04FF0807176
:101D90004F000228484609D091FAA1F1B1FA81F129
:101DA00048F82100FFF700FB054669E0894691FAF3
:101DB000A1F1B1FA81F1C24648F82100FFF7F4FA27
:101DC000804605E0FFF7F0FAA0EB0800022854D89F
:101DD00097FAA7F0B0FA80F040F02000400902D056
:101DE000306801E061E0706A97FAA7F1B1FA81F119
:101DF00001F01F0104FA01F10842E3D1286AB0F5AD
:101E0000803F05D17068A96820F4003008437060F5
:101E1000D5E908010843716821F474110843706022
:101E200099FAA9F0B0FA80F04AF82040FFF7BCFA1E
:101E3000054606E021E000BFFFF7B6FA401B022886
:101E40001BD897FAA7F0B0FA80F040F020004009C4
:101E500001D0306800E0706A97FAA7F1B1FA81F119
:101E600001F01F0104FA01F10842E5D01DE01EE077
:101E7000FFF79AFA401B022802D90320BDE8F88F29
:101E800097FAA7F0B0FA80F040F02000400901D0A6
:101E9000306800E0706A97FAA7F1B1FA81F101F0B9
:101EA0001F0104FA01F10842E2D10020E6E7012017
:101EB000E4E7000010B5040003D094F8510010B11D
:101EC00004E0012010BD204600F038F8022084F81C
:101ED00051002068016821F040010160D4E901014E
:101EE0000843D4E903121143084361690843218B75
:101EF00001F400710843E1690843216A0843A16ABB
:101F0000084321680860A069042101EA1040616A61
:101F10000843216848602168E06A08612068C16957
:101F200021F40061C161044900200870606501204E
:101F300084F85100002010BD0800002010B5006892
:101F40001F4986B0884239D11E48816941F48051C9
:101F50008161816901F480510491816941F004013A
:101F60008161816901F004010491816941F00401FA
:101F700081618069144C00F004000490A02000905E
:101F8000022001900320039069462046FFF728F9BC
:101F900000214020CDE90001029169462046FFF76B
:101FA0001FF9012210212046FFF7F8F910200090B8
:101FB0000120019069462046FFF712F906B010BDD6
:101FC0000030014000100240000801404FF0E021C5
:101FD0000428086903D020F004000861704740F02D
:101FE0000400FAE7704710B5401EB0F1807F01D3BE
:101FF000012010BD4FF0E02460610F21601700F058
:10200000D9FC0020A06107202061002010BD10B580
:10201000FFF7E8FF10BD30B590F83820012A19D03D
:10202000012200F8382F02234370D1E90034234302
:10203000D1E902452C4323430C6923434C69896948
:1020400023430B4350F8381C4B644270002101704D
:10205000084630BD022030BD30B590F83820012A46
:1020600020D0012280F83820022380F8393003681C
:102070005C6824F070045C6003685C680D682C4345
:102080005C6003689C6824F080049C6003689C6822
:1020900049680C439C6080F83920002180F8381092
:1020A000084630BD022030BD10B504460068042249
:1020B00000F05FFD2068416C41F4004141642068FC
:1020C000016841F001010160002010BD10B5044617
:1020D0000068002200F04DFD2068036A41F21111F2
:1020E0000B4240F2444206D1036A134203D1436CCF
:1020F00023F4004343642068036A0B4206D1016A5B
:10210000114203D1016821F001010160002010BDDE
:1021100010B5040003D094F8390010B107E0012095
:1021200010BD002084F83800204600F00DF8022091
:1021300084F83900211D206800F0DEFC012084F8BD
:102140003900002010BD000008B50068064988422B
:1021500008D10648816941F400618161806900F419
:102160000060009008BD0000002C014000100240FB
:1021700070B5044690F83800012817D0012584F87E
:102180003850022084F839002068826822F07702F3
:1021900022F47F4282600868502837D00DDC202866
:1021A00059D005DC88B3102841D151E0022070BD20
:1021B000302853D040283AD13FE060282ED07028F4
:1021C0000BD0B0F5805F03D0B0F5005F2FD110E0E9
:1021D0002068816821F0070115E0CB68D1E9012171
:1021E000206800F0D1FC2168886840F077008860A2
:1021F0001DE0CB68D1E90121206800F0C5FC206812
:10220000816841F48041816011E01EE0CA6849683C
:10221000206800F06DFD5021206806E0CA6849681A
:10222000206800F076FD6021206800F0B7FC84F89B
:102230003950002084F8380070BDCA6849682068A9
:1022400000F056FD40212068EFE700212068ECE710
:1022500010212068E9E720212068E6E73021206886
:10226000E3E770B5044690F838000D4601280DD01C
:10227000012684F83860022084F8390042B1042A2B
:1022800018D0082A2AD00C2A4DD139E0022070BD7E
:10229000206800F08BFC2068816941F008018161B1
:1022A0002068816921F004018161206881692A69BF
:1022B000114311E0206800F0A1FC2068816941F41D
:1022C000006181612068816921F4806181612068F9
:1022D00081692A6941EA0221816124E0206800F0D5
:1022E000B9FC2068C16941F00801C1612068C16979
:1022F00021F00401C1612068C1692A69114311E01C
:10230000206800F0D3FC2068C16941F40061C1611C
:102310002068C16921F48061C1612068C1692A69AE
:1023200041EA0221C16184F83960002084F8380054
:1023300070BD10B5040003D094F8390010B107E067
:10234000012010BD002084F83800204600F00CF871
:10235000022084F83900211D206800F0CDFB012007
:1023600084F83900002010BD7047000010B5044605
:102370000068012200F0F2FB07492068884203D17F
:10238000416C41F4004141642068016841F0010161
:102390000160002010BD0000002C014010B5044673
:1023A0000068002200F0DAFB104B41F211112068A6
:1023B0008A10984209D1036A0B4206D1036A13427C
:1023C00003D1436C23F4004343642068036A0B4247
:1023D00006D1016A114203D1016821F001010160B7
:1023E000012084F83900002010BD0000002C0140BD
:1023F0007047000038B5044600680168C26811F0F3
:10240000010F02F4807204D01AB1E16B41F00101B6
:10241000E1630168C1F34002416901F0010122B1A9
:1024200019B1E26B42F00402E2630268C2F3800277
:1024300022B119B1E26B42F00202E2630268C2F318
:10244000C00222B119B1E16B41F00801E1630168FA
:10245000C068C1F3401100F0200019B110B120464E
:1024600000F06AFC20680168C068C1F3C01100F088
:10247000800019B110B1204600F022FD21680868E3
:10248000CA68C0F3801002F04002012570B16AB141
:10249000CA68204622F04002CA6094F839103229F6
:1024A00011D080F8395000BF00F022F9E06B00280D
:1024B00008D0206801684068009084F839502046B0
:1024C000FFF796FF38BD222180F83910ECE770B590
:1024D000040004D094F83900002510B106E0012072
:1024E00070BD84F83850204600F020F8022084F8AF
:1024F00039002068C16821F40051C160204600F015
:102500006FFC2068016921F49041016120684169F4
:1025100021F02A0141612068C16841F40051C16085
:10252000E563012084F83900002070BD10B5006813
:10253000114986B088421DD11048816941F480411B
:10254000816180690E4C00F4804004904FF400706B
:102550000090022001900320039069462046FEF778
:102560003FFE00212015CDE9000102916946204679
:10257000FEF736FE06B010BD0038014000100240E4
:102580000008014090F83930012B01D0122B2CD1DA
:1025900039B332B390F83830012B26D0012380F8BC
:1025A000383081628285C2850021C16390F839206C
:1025B000122A18D05FF0220280F8392080F83810F3
:1025C0000168CA6842F48072CA6001684A6942F0D0
:1025D00001024A610068C16841F02001C160002029
:1025E0007047012070473222E6E702207047000062
:1025F00009480188FF290DD20849094A038809784A
:10260000D1540188491C0180054801220349403802
:10261000FFF7B8BF01F088BA24000020290000208D
:10262000140100202DE9F047044690F8390099463E
:102630000D46012801D0222858D12DB322B394F899
:102640003800012852D0012684F838600027E7635B
:1026500094F8390022281AD05FF0120084F839006B
:10266000A284E2844FF48058E08C4B46401EE08404
:10267000A0684FF0000240454FF08001204613D182
:1026800000F051FC08BB04E00120BDE8F0873220D7
:10269000E4E728882168C0F308004860206908B191
:1026A0006D1C08E0AD1C06E000F03DFC68B9216837
:1026B00015F8010B4860E08C0028D5D14B4600226C
:1026C0004021204600F02FFC08B10320DDE794F8FC
:1026D0003900322806D084F8396000BF84F8387099
:1026E0000020D2E7222084F83900F7E70220CCE767
:1026F0007047FEE708B51FA0FEF7F4FB38BB68463D
:1027000001F066FA9DF8001009B308E09DF800108A
:10271000491E11F0FF018DF8001018D0401C0178FF
:102720002C29F3D141788278C078A0F13003092BAD
:102730000FD8303901EBC10303EB011100EB81002D
:1027400002EB8201F02202EB410108440DE000207F
:1027500008BDA2F130000928A1F1300107D801EB32
:102760008100D02101EB40001044C0B208BDC8B2C6
:1027700008BD00002B434D54493A000070B51A487B
:1027800086B0816941F010018161816901F0100119
:102790000491816941F010018161816901F01001AA
:1027A0000491816941F0100181618069002400F089
:1027B000100004904FF4005002258DE831000B4EBC
:1027C00069463046FEF70CFD68038DE83100694626
:1027D0003046FEF705FDA8038DE831006946304616
:1027E000FEF7FEFC06B070BD001002400010014074
:1027F00030B52F4899B02D49016001210024C0E96E
:10280000011440F28331C0E903144461FFF780FCF6
:102810004FF48050129012A92548FFF7A9FC2448D4
:10282000FFF787FD169416A921481794FFF714FCAB
:10283000009401944FF4005502940394CDE90445AB
:1028400069461B480694FFF7E6FB6020079019488D
:102850000088CDE908040A940B940C94002207A97F
:1028600013480D94FFF7FDFC1348816941F0040102
:102870008161816901F004011891816941F00801C9
:10288000816180690EA900F00800189068110E900F
:1028900002200F90032011900848FEF7A1FC0EA91A
:1028A00007480E95FEF79CFC19B030BD002C014086
:1028B000140200202A0000200010024000080140FD
:1028C000000C014070B5174886B0816941F00401E1
:1028D0008161816901F004010491816941F0040181
:1028E00081618069104E00F00400049000220121F3
:1028F0003046FEF753FD002202213046FEF74EFD22
:102900000124022500946946304603950194FEF7A0
:1029100067FCCDE90054694630460395FEF760FC3C
:1029200006B070BD00100240000801400F4882B0A0
:10293000816941F00401816180690D4900F0040062
:1029400000900C484FF4806201604FF4E131416027
:102950004FF4805181600021C0E903120C22C0E9CC
:102960000521C16102B0FFF7B2BD000000100240B6
:10297000003801403C0000200C480B490222016055
:102980004FF48271416000218160C0E9031201228D
:102990004261520282610822C0E9072141628162DC
:1029A0000A21C162FFF786BA003001407C00002096
:1029B000FEE770470907090E002806DA00F00F004D
:1029C00000F1E02080F8141D704700F1E02080F84D
:1029D00000147047F8B5174C0026684601F0F8F867
:1029E0000546607832280ED3A078FF280ED09DF8D7
:1029F0000010142904D9A6706420FEF7E5FB15E049
:102A0000401CA0706670A078142806D06078401C26
:102A100060700A20FEF7D8FBDFE707A000F0E6FAB7
:102A20004FF47A70FEF7D0FBFF20A07001F07CF825
:102A30002846F8BD26000020B3ACCAB1CCF8B3F6E6
:102A40000000000010B5FEF7B5FCBDE81040FFF730
:102A5000DEBA30B58FB00120009000040024CDE92B
:102A600001040225CDE907504FF4E01009906846B3
:102A7000FEF706FF0F20CDE90A056802CDE90C40FC
:102A800002210AA80E94FEF72DFDFEF76FFE4FF40B
:102A90007A71B0FBF1F0FFF7A6FA0420FFF796FA7F
:102AA00000221146501EFEF7EBFC0FB030BD0000B7
:102AB0000D48016841F00101016041680B4A114075
:102AC000416001680A4A11400160016821F48021D7
:102AD0000160416821F4FE0141604FF41F018160F3
:102AE0000449C00308607047001002400000FFF86E
:102AF000FFFFF6FE08ED00E0F0B50268144B154C40
:102B0000154D4FF08047984205D0B84203D0A042FF
:102B100001D0A84203D122F070064A68324398429D
:102B200005D0B84203D0A04201D0A84203D122F47C
:102B30004074CA68224302608A68C2620A6882627C
:102B4000984201D10969016301214161F0BD000092
:102B5000002C0140000400400008004010B5012393
:102B6000046A8B409C430462036A8A4013430362F5
:102B700010BD10B50423046A8B409C430462036AB1
:102B80008A401343036210BD10B5846842EA0322F1
:102B900024F47F440A432243826010BD826822F0FD
:102BA00070020A4342F007018160704730B5026A43
:102BB00022F001020262026A4368846924F073050C
:102BC0000C682C4322F002058A682A430A4DA84269
:102BD0000BD122F00805CA6823F440732A434D69DB
:102BE00022F004021D438B692B43436084614968D2
:102BF0004163026230BD0000002C014030B5026A22
:102C000022F010020262026A436884690D6824F4AB
:102C1000E64444EA05248D6822F0200242EA0512C7
:102C20000B4DA8420ED1CD6822F0800242EA051277
:102C30004D6923F4406343EA85038D6922F0400225
:102C400043EA85034360846149688163026230BD61
:102C5000002C014030B5026A22F480720262036ADD
:102C60004268C46923F4007324F073050C682C4394
:102C70008D6843EA05230C4DA8420ED1CD6823F49C
:102C8000006343EA05234D6922F4405242EA0512EB
:102C90008D6923F4806342EA05124260C461496889
:102CA000C163036230BD0000002C014030B5026AF0
:102CB00022F480520262046A4268C3690D6823F4F8
:102CC000E64343EA05238D6824F4005444EA0534BE
:102CD000064DA84204D14D6922F4804242EA851291
:102CE0004260C36149680164046230BD002C014048
:102CF00010B5036A046A24F001040462846924F0B4
:102D0000F00444EA021423F00A020A4384610262D6
:102D100010BD10B5036A23F0100303628369046ACF
:102D200023F4704343EA023224F0A00343EA011182
:102D30008261016210BD000010B590F8391022299F
:102D400003D0322901D0022010BD8168B1F5805F27
:102D500011D00169002901681FD0496801F07F0383
:102D6000816A4A1C82620B70C18D491E0904090CDC
:102D7000C18518D030E00269816A002A0268526871
:102D800005D0D2B20A80816A491C8162ECE7C2F3A5
:102D900008020A80816A891CF7E74A68816A4B1C2D
:102DA00083620A70E0E70168CA6822F02002CA6004
:102DB00090F83910322911D00168CA6822F4807263
:102DC000CA6001684A6922F001024A615FF00101AC
:102DD00080F83910FFF70CFC002010BD1221F7E736
:102DE0002DE9F041044600680169E26821F4405190
:102DF000114301612169A0680843616908432168A2
:102E0000CA6841F20C639A430243CA602068416970
:102E1000A26921F440711143416128492068642569
:102E20004FF03208884218D1FEF7D0FC00EBC00109
:102E300001EB001061688900B0FBF1F0B0FBF5F622
:102E4000FEF7C4FC00EBC00101EB001061688900D3
:102E5000B0FBF1F7FEF7BAFC17E0FEF7A1FC00EBC0
:102E6000C00101EB001061688900B0FBF1F0B0FB1C
:102E7000F5F6FEF795FC00EBC00101EB0010616870
:102E80008900B0FBF1F7FEF78BFC00EBC00101EB12
:102E9000001061688900B0FBF1F0B0FBF5F06FF055
:102EA0001801484307EB800108EB0110B0FBF5F077
:102EB000216866F31F108860BDE8F081003801408A
:102EC00090F83910122903D0322901D0022070471E
:102ED0008168B1F5805F016A0BD04A1C026202680A
:102EE00009785160C18C491E0904090CC1840ED0B7
:102EF00017E009880268C1F30801516001690029DF
:102F0000016A02D0491C0162ECE7891CFBE70168F9
:102F1000CA6822F08002CA600068C16841F04001BE
:102F2000C160002070472DE9F0471D4690460E46CF
:102F30000446FEF739FA07465FEA08004FF0000939
:102F40004FF0010808D030E0681C05D095B1FEF7BD
:102F50002BFAC01BA8420DD82068006836EA000092
:102F6000F2D127E0681C20D025B1FEF71DFAC01B66
:102F7000A8421AD92068C16821F08001C160206888
:102F8000C16821F02001C1602068C16821F480710E
:102F9000C1602068416921F00101416184F83980F4
:102FA00084F838900320BDE8F0872068006836EA8E
:102FB0000000D7D00020F6E70148FFF71BBA000059
:102FC000D4000020FEE7000001B507480068016852
:102FD000C9430906FBD44FF6FF7301226946024834
:102FE000FFF720FB08BD0000D40000200FB4054B04
:102FF00010B503A9044A029800F03CF910BC5DF832
:1030000014FB0000493B0008300000200FB4084BBF
:1030100010B504A902AA039800F02CF9044602A9ED
:10302000002000F0BEFC204610BC5DF814FB000040
:10303000A339000830B528B1144C031F00202168C3
:103040000A4605E0084630BD9A4203D81046526849
:10305000002AF9D1002800D041680BD00468A3EB06
:103060000005A54204D11B681C440346046002E02D
:10307000436000E023603AB11C68D51AA54203D131
:1030800015682C441C6052685A6030BD3400002022
:103090002DE9F04782460F4C10480D4E0E4F001B95
:1030A0004FF0000820F007054FF0010900221146FB
:1030B000504600F09FFD002802D1306810B100207A
:1030C000BDE8F0873C60C4E90058C6F80090EDE721
:1030D000380000205402002034000020500400205A
:1030E00002E008C8121F08C1002AFAD170477047D1
:1030F000002001E001C1121F002AFBD1704700002F
:103100002DE9FF5FDDE90220010DDDF838B0024353
:1031100018D044F61050A1F2FF3141430D140F981E
:10312000012820D0A5EB0B00401C5FEA000A4FF0FD
:103130000004474EDFF81C91A046504616D5CAF150
:10314000000728E00F98012443A2012808D000219D
:1031500000980F9BC0E90021C0E90243BDE8FF9F32
:103160006FEA0B01F4E7CBF10000DEE7074612E05F
:10317000F80707D02246334640464946FDF720FC73
:10318000804689462246334610461946FDF718FC0C
:1031900004460E467F10002FEAD1DDE90201BAF1A4
:1031A000000F42464B4602DAFDF70AFC01E0FDF74C
:1031B00079FC04460E460022284BFDF72FFA03D86F
:1031C0004FF0FF30014607E00022254B20463146F4
:1031D000FDF74FFBFDF7E1FC102409E0002C0ADBB2
:1031E0000A220023FDF748FA019B30321A55641E6B
:1031F00050EA0102F2D1641C019AC4F11103144493
:103200000F9A012A03D0012208430DD10AE0084396
:1032100004D000204FF0110B0F9080E7A3EB0B05BB
:103220006D1E0DE05B4504DD4FF0000205F1010568
:1032300004E003DA4FF00002A5F10105002AECD00A
:1032400000980F99C0E90231C0E9004586E7000007
:10325000000024400000F03F300000000000F04378
:103260000000E03F30380A2801D2012070470020DA
:10327000704700002DE9FF4F95B09B4689460646F2
:1032800000250FE2252877D100242746F84A01219E
:10329000059400E0044316F8013F203B01FA03F0D7
:1032A0001042F7D130782A2811D06FF02F033078F0
:1032B000A0F13002092A16D8059A44F0020402EB64
:1032C000820203EB42021044761C0590EFE759F8A6
:1032D000042B0592002A03DA504244F4005405906E
:1032E00044F00204761C30782E2816D116F8010F0F
:1032F00044F004042A280DD06FF02F023078A0F19A
:103300003003092B09D807EB870302EB4303C718E7
:10331000761CF3E759F8047B761C30786C280FD0C4
:1033200006DC4C2817D068280DD06A2814D104E098
:10333000742810D07A280FD10DE044F400140AE06C
:1033400044F4801401E044F440147278824202D1C3
:1033500004F58014761C761C307866280BD013DCBC
:10336000582877D009DC002875D04528F6D04628A3
:10337000F4D047281AD19DE118E0632835D064289D
:1033800079D0652812D195E1702873D008DC6728C0
:10339000F1D069286FD06E280DD06F2806D1B5E026
:1033A00073282CD0752875D0782874D05A46179970
:1033B00090476D1C75E1C4F30250022809D0032820
:1033C0000DD0D9F8001004280DD00D6009F10409C2
:1033D00067E1D9F80010EA17C1E90052F6E7D9F819
:1033E00000100D80F2E70D70F0E719F8041B8DF85E
:1033F000001000208DF80100EA46012003E059F892
:1034000004AB4FF0FF3061074FF0000102D40DE034
:1034100008F101018846B9420FDA8045F8DB1AF855
:1034200008100029F4D108E008F101018846814222
:10343000FADB1AF808100029F6D105985B46A0EBD4
:10344000080721463846179A00F094FA284400EB02
:10345000080507E04DE029E10DE01AF8010B5A4696
:1034600017999047B8F10108F7D25B4621463846D4
:10347000179A13E142E00A220092C4F302524FF07D
:10348000000A022A08D059F804CB032A4FEAEC714B
:103490000AD00DE029E02AE009F1070121F0070236
:1034A000F2E802C1914609E00FFA8CFC4FEAEC7198
:1034B000042A03D14FFA8CFC4FEAEC71002907DA99
:1034C0000A460021DCF1000C61EB02012D2202E032
:1034D000220504D52B228DF80420012203E0E20707
:1034E00001D02022F7E7904659E00A2102E010229D
:1034F0000DE010214FF0000A00910BE010224FF078
:10350000000A44F004040827009203E008224FF068
:10351000000A0092C4F30252022A05D059F804CBE3
:103520000021032A08D009E009F1070121F0070270
:10353000F2E802C1914605E01FFA8CFC042A01D191
:103540000CF0FF0C4FF00008220728D5702806D099
:10355000009B83F0100353EA0A0305D00EE04022DB
:103560008DF80420012208E05CEA010206D0302236
:103570008DF804208DF8050002229046009B83F010
:10358000080353EA0A030AD15CEA010201D1620787
:1035900005D530228DF804204FF001087F1E5828F1
:1035A00004D034A003900EA802900DE036A0F9E7F5
:1035B00053466046009AFDF75FF884460398825CA4
:1035C0000298401E029002705CEA0100F0D102985D
:1035D00006A9081A00F1200A600702D524F48034F5
:1035E00000E00127574502DDA7EB0A0000E00020BC
:1035F00000EB0A01009005984144401A0590E00351
:1036000006D45B462146179A059800F0B3F90544A5
:10361000002706E001A85A46C05D179990476D1C27
:103620007F1C4745F6DBE0030CD55B462146179A25
:10363000059800F09FF9054404E030205A46179998
:1036400090476D1C0099481E00900029F5DC08E0A9
:10365000029802995A460078491C0291179990479E
:103660006D1CBAF10001AAF1010AF1DC65E100006C
:103670000928010030313233343536373839616248
:10368000636465660000000030313233343536370C
:1036900038394142434445460000000000F058F9E3
:1036A0000544761C307800287FF4ECAD19B028462C
:1036B000BDE8F08F620700D4062709F1070222F067
:1036C000070CFCE80223E14603F000485FEA080C1F
:1036D00002D00FF2702C0DE05FEA045C02D50FF20D
:1036E000682C07E05FEAC47C02D00FF2602C01E096
:1036F000AFF2700C4FF0FF3823F00043CDF850C00C
:1037000065280CD006DC452809D046281DD047285E
:103710003DD13DE0662818D067287ED138E00021F1
:10372000112F01DB112000E0781CCDE9000106A972
:103730000EA8FFF7E5FCDDE90F010E9A03910021C9
:10374000009207F1010A04914DE04FF0004000970C
:10375000CDE9011006A90EA8FFF7D2FCDDE90F02A2
:1037600003920E9B11990022DDF80CA000930492A5
:1037700011B9791C00EB010AB7EB0A0004D4C0F1BF
:10378000FF3007F1010A0490AAEB0700019044E022
:10379000012F00DA01270021112F01DD112000E0A7
:1037A0003846CDE9000106A90EA8FFF7A9FCDDE91E
:1037B0000F010E9A0391002104910092BA4621074D
:1037C0000CD40399514500DA8A46BAF1010F05DDA0
:1037D000009AAAF10101515C302908D0B84202DAFE
:1037E00010F1040F06DA0121CDE9011015E0AAF16C
:1037F0000101E9E7002805DC049901440491AAEBE2
:10380000000102E0411C514500DD8A460499401A3E
:10381000401C01904FF000400290200704D4019812
:10382000504501DBCDF8048000208DF84F00029850
:103830000DF14F07B0F1004F25D02B200E900298CC
:103840004FF0020800280CDA404202902D200E9022
:1038500007E00A210298FCF7F9FE3031029007F8E0
:10386000011DB8F10001A8F10108F2DC029800285E
:10387000EFD1791E0E980870307800F0200040F0EB
:10388000450007F8020D12A8C01B00F107081498A4
:10389000007800B1012000EB0A01019801EBE07112
:1038A00005984144401A401E0590E00306D45B464B
:1038B0002146179A059800F05DF8054414980078A1
:1038C00018B15A46179990476D1CE00324D55B4602
:1038D0002146179A059800F04DF805441CE004981D
:1038E000002807DBDDE90301884203DD0098405C26
:1038F000179901E0179930205A469047049805F12E
:103900000105401C04900198401E019004D12E2016
:103910005A46179990476D1CBAF10001AAF1010AA5
:10392000DDDC05E017F8010B5A46179990476D1C2E
:10393000B8F10001A8F10108F4DC5B462146179AB2
:103940000598ABE62D0000002B00000020000000D1
:103950002DE9F041044600251E461746880404D48C
:1039600005E039462020B0476D1C641EF9D5284675
:10397000BDE8F0812DE9F041044600251E46904641
:10398000C80301D5302700E02027880404D505E0CE
:1039900041463846B0476D1C641EF9D52846BDE83F
:1039A000F0810A68531C0B601070704710B588B125
:1039B00003687BB142688168914206D25C5C202C2E
:1039C00003D8491C81600028F5D1914201D1491EDC
:1039D000816010BD002010BD70B504460F4E19E087
:1039E000A0892568C0050AD4A06820B1FFF7F4FFBC
:1039F000A089C00503D4206908B171688847A089EF
:103A0000800503D4206A08B1716888477168204630
:103A100088472C46002CE3D170BD00001800002020
:103A2000002200F09DB810B50168282088470400E6
:103A300002D02821FCF7A5FB204610BD002211462C
:103A4000AFF300802DE9F04788B00D46044692465A
:103A50001C216846FCF795FB31480026002C0660C7
:103A600046605AD020460094FCF7B4FB401CDFF8B7
:103A7000B090CDE90106D9E90212D9F810000491FD
:103A8000CDE90520B04609F10800FFF7CCFF07009B
:103A90002BD000986E4608B1029808B100260BE0C2
:103AA0000198042808D903221EA10098FCF7B0FB56
:103AB00010B90298C01C02903046FFF777FF01460C
:103AC000384600F0F9FC68B1BAF1000F14D068462E
:103AD000FFF76CFFDDE90101814203D202990098F2
:103AE000405C48B13846FFF777FFDDE901214046E9
:103AF00091420AD208460BE01DB102990098084491
:103B00002860384608B0BDE8F087110000D0481E94
:103B10000DB121182960C9E900400020F2E700003A
:103B200010000020EFBBBF00054A00214FF4807059
:103B30001180044A401E0004000C1154FAD1704751
:103B4000240000201401002013B54FF6FF7301225A
:103B500069460248FEF766FD00981CBD3C00002047
:103B60002DE9F041884628B1B8F1000F02D08468F1
:103B700022B90CE00020BDE8F081246834B340464F
:103B8000216AFCF72EFB0028F7D11FE02468ECB176
:103B9000266A5FEA0805F9D0002EF7D0B54215D0A5
:103BA00002E098B16D1C761C2878FCF7CBFA07462A
:103BB0003078FCF7C7FA87422878F2D0FCF7C2FACF
:103BC00005463078FCF7BEFA8542DFD12046D2E7C1
:103BD0000249098801700248704700002400002053
:103BE0001401002010B5FDF79DF9BDE81040FDF768
:103BF0009DBA00002DE9F0410B3020F00706104D72
:103C000019E02068B04215D3B0420AD9871B201DA5
:103C1000D4F80480FCF79CFAA019C0E90078286069
:103C200004E060682860201DFCF792FA201D2660E1
:103C3000BDE8F081251D2C68002CE2D10020F7E7BB
:103C400034000020ADF52E7DFDF7BCFBFEF701FF33
:103C5000FEF738FEFEF792FDFEF768FEFEF78CFEDB
:103C6000FEF7C6FD4FF47A7408E09DA0FFF7BEF999
:103C7000A2A0FFF7BBF92046FDF7A6FAFDF70CFA64
:103C80000028F2D16420FDF79FFA00F0D1F9FFF788
:103C9000A9FFAAA0FFF7AAF9502199A8FCF771FA89
:103CA0004FF400716846FCF76CFADFF8A8A2AA4F3F
:103CB0004FF4FA744FF4E17B4FF47A70FDF784FA15
:103CC000FEF718FD0500F7D0A4A13846FDF746F829
:103CD0002046FDF779FA6A4699A9284600F06AFC61
:103CE0000028E9D0FFF720FF6946A1A0FFF77EF981
:103CF0006846FFF7A3FE060077D0A4A0FFF776F989
:103D0000A7A13046FFF78CFEC168102905D10069D4
:103D1000AD900146A5A0FFF769F9A8A13046FFF7CD
:103D20007FFEC168082905D1007D80460146A5A017
:103D3000FFF75CF9A6A13046FFF772FEC1680829BB
:103D400005D1007D81460146A2A0FFF74FF9A448A6
:103D5000016880A8FCF753FAA2A180A8FCF71CFA1E
:103D600080A8AD99FCF718FAA1A180A8FCF714FA75
:103D700000217848FEF7FAFA00217648FEF794F918
:103D80004846B9F1010F05D003281BD0B9F1050F42
:103D900006D12BE0B8F12C0F03D0B8F1360F03D0C9
:103DA00080E04FF4967000E06420DAF80010486379
:103DB0004FF47A60FDF708FADAF80010C1F834B071
:103DC000642065E0B8F12C0F03D0B8F1360F03D0B2
:103DD00068E04FF4967801E04FF06408DAF80010DC
:103DE000C1F834804FF47A692EE06FE0B8F12C0FFF
:103DF00003D0B8F1360F03D054E04FF4967801E0C9
:103E00004FF06408DAF80010C1F834804FF47A6992
:103E10004846FDF7D9F9DAF80010C1F834B0204669
:103E2000FDF7D2F9DAF80010C1F834804846FDF702
:103E3000CBF9DAF80010C1F834B02046FDF7C4F928
:103E4000DAF80010C1F834804846FDF7BDF9DAF819
:103E50000010C1F834B02046FDF7B6F9DAF80010CA
:103E6000C1F834804846FDF7AFF9DAF80010C1F820
:103E700034B02046FDF7A8F9DAF80010C1F8348014
:103E80004846FDF7A1F9DAF80010C1F834B0204631
:103E9000FDF79AF900212F48FEF718F900212D4867
:103EA000FEF77CFAFDF7E4F880A954A0FFF79EF82E
:103EB00080A8FDF795F8014654A0FFF797F8FFF7A3
:103EC00033FEFDF779F83046FFF786FD2A4655A107
:103ED0003846FCF743FF6420FDF776F9ECE6000076
:103EE0000AC4A3BFE9CFECD3A6B2E2CAD4B2BBD511
:103EF000FDB3A3A3A1A3A10A00000000C8F4C4A3BA
:103F0000BFE9CFECD3A6B2E2CAD4D2BBD6B1B2BB22
:103F1000D5FDB3A3A3ACC7EBBCECB2E9C4A3BFE926
:103F2000B5C4C1ACBDD3BBF2CAC7B7F1D2D1BFAA29
:103F3000C6F4B5E7D4B4BFAAB9D80A000A45766575
:103F400072797468696E672069732072656164793B
:103F5000210A0000140200200048004041542B4375
:103F60005343533D22383835392D31220D0000009E
:103F70000A206E6577206D736720636F6E74656EBF
:103F800074203D202573200A0D0000000A20726570
:103F9000736F6C65206A736F6E200A0D000000005D
:103FA00074726164655F6E6F00000000747261641A
:103FB000655F6E6F3A25730D0A00000073697A65BC
:103FC0000000000073697A653A25640D0A0000005C
:103FD000706572007065723A25640D0A0000000079
:103FE0000C0000203F74726164655F6E6F3D0000DD
:103FF00026726573756C743D310000000A75726C31
:10400000203D3D3D3D2025730A0000000AB7FECE4D
:10401000F1C6F7B7B5BBD8B5C4B2CECAFDA3BA25B1
:10402000730A000041542B434D47443D25640D0065
:1040300010B5114C0CA12046FCF790FE6420FDF752
:10404000C3F80EA12046FCF789FE6420FDF7BCF8FA
:104050000DA12046FCF782FE6420FDF7B5F8BDE80F
:104060001040FFF761BD000041542B434E4D493DC8
:10407000322C310D000000000048004041542B4319
:104080004D47463D310D000041542B434D474441BF
:104090003D2244454C20414C4C220D002DE9F0417D
:1040A00007460025C8680C462E46B0F57A7F59D2DF
:1040B000401CE0602168A068095C5B2952D1401C6B
:1040C000A0602046FFF772FC4CB1D4E90110884291
:1040D00003D22268125C5D2A33D0884203D3A068E1
:1040E000401EA0603EE0401E04F11008A060404663
:1040F000FFF799FC88B30DB3306046600646A068B0
:10410000401CA0602046FFF751FC2146304600F0DD
:10411000D3F920B32046FFF749FC04B3D4E90110DA
:10412000884203D22168095C2C29E0D06268904261
:1041300015D22168085C5D2811D102E005462E46A3
:10414000DDE7E068401EE0602020C7E90250A0687B
:10415000401CA0600120BDE8F081FFE715B12846B2
:10416000FFF73AFC0020F6E7034610B500200246B0
:10417000995CA1F13004092C01D830380AE0A1F192
:104180004104052C01D8373804E0A1F16104052C65
:1041900008D857380844032A00D20001521C042AC8
:1041A000E6D310BD002010BD2DE9F04192B04FF0D4
:1041B000000506460C004FF02E03284610953CD013
:1041C0002168D1B36A4627E027683944415C342925
:1041D0001BD00ADCA1F12B07092F23D2DFE807F05F
:1041E0001522151722151515150038290DD006DCD6
:1041F00035290AD0362908D0372913D105E03929C5
:1042000003D0452901D065290CD1115400E0135485
:10421000401C3F2806D22CB1A168D4F804C00F1866
:104220006745D1D31554904610A9104600F0A3FA63
:104230000F4610990546884503D1002012B0BDE80D
:10424000F081C6E90657114A114B28463946FCF75A
:10425000E5F902D86FF000400DE000220D4B284632
:104260003946FCF7C3F902D84FF0004003E0284676
:104270003946FCF79BF970610820F060109AA1683C
:10428000A2EB08000844A0600120D7E70000C0FFAF
:10429000FFFFDF410000E0C12DE9F04107460026A5
:1042A000C8680C463546B0F57A7F76D2401CE0608F
:1042B000002C72D0D4E9011088426ED22168095CCA
:1042C0007B296AD1401CA0602046FFF76FFBD4E930
:1042D0000110884203D22268125C7D2A4CD08842A9
:1042E000A0F10100A06058D204F110084046FFF789
:1042F0009AFBE8B3F6B1286045600546A068401C0B
:10430000A0602046FFF752FB2146284600F048F8FF
:1043100078B32046FFF74AFB28692862002028610D
:104320003CB3D4E90110884234D22168095C3A29AF
:1043300030D102E006463546E0E7401CA06020464A
:10434000FFF734FB2146284600F0B6F888B1204636
:10435000FFF72CFBD4E90110884203D22168095CE5
:104360002C29C3D06268904214D22168085C01E015
:104370000FE00FE07D280DD1E068401EE060402096
:10438000C7E90260A068401CA0600120BDE8F08180
:1043900003E016B13046FFF71FFB0020F6E70000F0
:1043A0002DE9F84380460E46086889684FF00009F9
:1043B0004318CDF80090415C5D1C5C1C222975D12E
:1043C0000022716809E000BFBCF15C0F04D17F1CC2
:1043D0008F426BD2521C641C641C271A8F4204D279
:1043E00094F800C0BCF1220FEED1201A88425DD2B1
:1043F000207822285AD1E01A801A3169401C884757
:10440000070053D000973DE029785C2905D000983B
:104410006D1C00F8011B009034E00221601B012894
:1044200040DB6878662814D008DC22281DD02F28AD
:104430001BD05C2819D0622834D108E06E280ED039
:1044400072280ED074280ED075282BD112E00822C5
:1044500000E00C22009800F8012B009011E00A22E5
:10446000F8E70D22F6E70922F4E7009A02F8010BBB
:10447000009206E06A462146284600F08BF90100CA
:1044800010D00D44A542BFD3009981F800901021AF
:10449000C8E903173068201A401CB0600120BDE84D
:1044A000F88303E017B171693846884715B1306861
:1044B000281AB0600020F2E770B50C0005465ED007
:1044C000206800285BD0A16863680A1D9A4205D85D
:1044D0000844042231A1FBF79BFE78B3A068626810
:1044E000411D0126914206D82168052208442DA1CC
:1044F000FBF78EFE28B3A0686268011D914206D8C2
:1045000021680422084429A1FBF782FEE8B1D4E91E
:104510000101814203D22268525C222A1DD08142CD
:1045200021D22268525C2D2A02D0303A092A1AD8A8
:1045300021462846BDE87040FFF736BE0420E860FB
:1045400006E0EE60A068401D04E002206E61E860B5
:10455000A068001DA060012070BD21462846BDE86E
:104560007040FFF71DBF814203D22268525C5B2A74
:1045700007D0814203D22068405C7B2807D000200E
:1045800070BD21462846BDE87040FFF787BD214633
:104590002846BDE87040FFF77FBE00006E756C6C6A
:1045A0000000000066616C73650000007472756540
:1045B00000000000F0B587B00E46044615461421F1
:1045C0006846FBF7DEFDFFF7AFFA3148007884421A
:1045D0004CD822462FA16846FEF718FD4FF4FA7218
:1045E0002FA16846FCF764FC80BB05A8FFF7F0FA32
:1045F0009DF8142004464AB301462BA0FEF7F6FCB2
:104600002FA12046FBF7D4FD08B101270BE00227BC
:1046100009E000BF9DF81400401E10F0FF008DF867
:10462000140024D0641C20782C28F3D1A41C07E0AB
:1046300006F8010B9DF81400401E8DF81400641C50
:1046400020782228F4D1002030700AE00EE000BF6C
:104650009DF81410491E11F0FF018DF8141005D0BB
:10466000641C21782B29F3D1A41D06E0002007B09B
:10467000F0BD00BF05F8011B641C21780D29F9D19C
:104680002870394610A0FEF7B1FC3846EFE700006D
:104690002600002041542B434D47523D25640D0018
:1046A0002B434D47523A0000434D47523A726564DE
:1046B0006174613A25730A6C656E3D25640A0000D9
:1046C000554E524541440000434D47523A7265737E
:1046D000756C743A25640A002DE9F04704008A4697
:1046E00016D054F8047CD4F800903E1F564500D9EB
:1046F00056462046FEF79EFC054688463246214631
:104700005046FFF777FA40B1C0F80090BDE8F08757
:10471000BDE8F0470846FEF7BBBC44E9017955B156
:1047200029686A18211F8A4202D9611B091F296062
:10473000C5F80480EAE7024AC2F80080E6E7000014
:104740003400002070B516460A460546002431465E
:1047500010460AE004EBC40000EB041005EB8000F7
:10476000641CFBF74CFD31460020FBF761FD0100A6
:10477000F0D1204670BD00B583B00A460021CDE9D6
:10478000001101466846FBF7E4FFDDE9000103B0D4
:1047900000BD00002DE9F04705460027481B1646DE
:1047A000894606285DDBA81CFFF7DEFC0446A0F561
:1047B0005C414FF48060814253D3A4F55841824656
:1047C00051451AD2A81DA9EB00014FF00C0806298B
:1047D00047DB01785C2944D14178752941D1801C9F
:1047E000FFF7C2FCA0F55C4151453AD2C4F3090180
:1047F00061F39F2000F5803002E04FF0060820466C
:10480000802801D2012110E0B0F5006F02D2022110
:10481000C0270AE0B0F5803F02D20321E02704E080
:10482000B0F5881F1DD20421F0274A1E08E000BF02
:1048300000F0BF03346843F080038009A354521E84
:1048400012F0FF02F4D1012901D9384301E000F050
:104850007F00326810703068084430604046BDE820
:10486000F0870020FBE700000000010203040102C2
:10487000030406070809DDDDDDDDDCBBBBDDDDDDB6
:10488000DDDDDDDDDDDD98888888888888887777BC
:104890007777778888888555555666666666666632
:1048A0006666666888888333333222222222222277
:1048B00022222228888D0000687474703A2F2F619C
:1048C00070692E70617065722D676F2E636F6D2F2A
:1048D00070617065725F726573756C7400000000C2
:1048E00000490008000000203C000000E030000803
:1048F0003C4900083C00002014140000F03000087F
:1049000000A24A040000000000000000B8480008AF
:104910000000000000000000913000083530000861
:10492000D946000800003201000014000000000019
:0C4930000000000000000000000000007B
:04000005080000ED02
:00000001FF
